{
  "contractName": "MultiSig",
  "abi": [
    {
      "inputs": [
        {
          "internalType": "address[]",
          "name": "_owners",
          "type": "address[]"
        },
        {
          "internalType": "uint256",
          "name": "_numConfirmationsRequired",
          "type": "uint256"
        }
      ],
      "stateMutability": "nonpayable",
      "type": "constructor"
    },
    {
      "anonymous": false,
      "inputs": [
        {
          "indexed": true,
          "internalType": "address",
          "name": "owner",
          "type": "address"
        },
        {
          "indexed": true,
          "internalType": "uint256",
          "name": "txIndex",
          "type": "uint256"
        }
      ],
      "name": "ConfirmTransaction",
      "type": "event"
    },
    {
      "anonymous": false,
      "inputs": [
        {
          "indexed": true,
          "internalType": "address",
          "name": "sender",
          "type": "address"
        },
        {
          "indexed": false,
          "internalType": "uint256",
          "name": "amount",
          "type": "uint256"
        },
        {
          "indexed": false,
          "internalType": "uint256",
          "name": "balance",
          "type": "uint256"
        }
      ],
      "name": "Deposit",
      "type": "event"
    },
    {
      "anonymous": false,
      "inputs": [
        {
          "indexed": true,
          "internalType": "address",
          "name": "owner",
          "type": "address"
        },
        {
          "indexed": true,
          "internalType": "uint256",
          "name": "txIndex",
          "type": "uint256"
        }
      ],
      "name": "ExecuteTransaction",
      "type": "event"
    },
    {
      "anonymous": false,
      "inputs": [
        {
          "indexed": true,
          "internalType": "address",
          "name": "owner",
          "type": "address"
        },
        {
          "indexed": true,
          "internalType": "uint256",
          "name": "txIndex",
          "type": "uint256"
        }
      ],
      "name": "RevokeConfirmation",
      "type": "event"
    },
    {
      "anonymous": false,
      "inputs": [
        {
          "indexed": true,
          "internalType": "address",
          "name": "owner",
          "type": "address"
        },
        {
          "indexed": true,
          "internalType": "uint256",
          "name": "txIndex",
          "type": "uint256"
        },
        {
          "indexed": true,
          "internalType": "address",
          "name": "to",
          "type": "address"
        },
        {
          "indexed": false,
          "internalType": "uint256",
          "name": "value",
          "type": "uint256"
        },
        {
          "indexed": false,
          "internalType": "bytes",
          "name": "data",
          "type": "bytes"
        }
      ],
      "name": "SubmitTransaction",
      "type": "event"
    },
    {
      "inputs": [
        {
          "internalType": "uint256",
          "name": "",
          "type": "uint256"
        },
        {
          "internalType": "address",
          "name": "",
          "type": "address"
        }
      ],
      "name": "isConfirmed",
      "outputs": [
        {
          "internalType": "bool",
          "name": "",
          "type": "bool"
        }
      ],
      "stateMutability": "view",
      "type": "function",
      "constant": true
    },
    {
      "inputs": [
        {
          "internalType": "address",
          "name": "",
          "type": "address"
        }
      ],
      "name": "isOwner",
      "outputs": [
        {
          "internalType": "bool",
          "name": "",
          "type": "bool"
        }
      ],
      "stateMutability": "view",
      "type": "function",
      "constant": true
    },
    {
      "inputs": [],
      "name": "numConfirmationsRequired",
      "outputs": [
        {
          "internalType": "uint256",
          "name": "",
          "type": "uint256"
        }
      ],
      "stateMutability": "view",
      "type": "function",
      "constant": true
    },
    {
      "inputs": [
        {
          "internalType": "uint256",
          "name": "",
          "type": "uint256"
        }
      ],
      "name": "owners",
      "outputs": [
        {
          "internalType": "address",
          "name": "",
          "type": "address"
        }
      ],
      "stateMutability": "view",
      "type": "function",
      "constant": true
    },
    {
      "inputs": [
        {
          "internalType": "uint256",
          "name": "",
          "type": "uint256"
        }
      ],
      "name": "transactions",
      "outputs": [
        {
          "internalType": "address",
          "name": "to",
          "type": "address"
        },
        {
          "internalType": "uint256",
          "name": "value",
          "type": "uint256"
        },
        {
          "internalType": "uint256",
          "name": "numConfirmations",
          "type": "uint256"
        },
        {
          "internalType": "bytes",
          "name": "data",
          "type": "bytes"
        },
        {
          "internalType": "bool",
          "name": "executed",
          "type": "bool"
        }
      ],
      "stateMutability": "view",
      "type": "function",
      "constant": true
    },
    {
      "stateMutability": "payable",
      "type": "receive",
      "payable": true
    },
    {
      "inputs": [
        {
          "internalType": "address",
          "name": "_to",
          "type": "address"
        },
        {
          "internalType": "uint256",
          "name": "_value",
          "type": "uint256"
        },
        {
          "internalType": "bytes",
          "name": "_data",
          "type": "bytes"
        }
      ],
      "name": "submitTransaction",
      "outputs": [],
      "stateMutability": "nonpayable",
      "type": "function"
    },
    {
      "inputs": [
        {
          "internalType": "uint256",
          "name": "_txIndex",
          "type": "uint256"
        }
      ],
      "name": "confirmTransaction",
      "outputs": [],
      "stateMutability": "nonpayable",
      "type": "function"
    },
    {
      "inputs": [
        {
          "internalType": "uint256",
          "name": "_txIndex",
          "type": "uint256"
        }
      ],
      "name": "executeTransaction",
      "outputs": [],
      "stateMutability": "nonpayable",
      "type": "function"
    },
    {
      "inputs": [
        {
          "internalType": "uint256",
          "name": "_txIndex",
          "type": "uint256"
        }
      ],
      "name": "revokeConfirmation",
      "outputs": [],
      "stateMutability": "nonpayable",
      "type": "function"
    },
    {
      "inputs": [],
      "name": "getOwners",
      "outputs": [
        {
          "internalType": "address[]",
          "name": "",
          "type": "address[]"
        }
      ],
      "stateMutability": "view",
      "type": "function",
      "constant": true
    },
    {
      "inputs": [],
      "name": "getTransactionCount",
      "outputs": [
        {
          "internalType": "uint256",
          "name": "",
          "type": "uint256"
        }
      ],
      "stateMutability": "view",
      "type": "function",
      "constant": true
    },
    {
      "inputs": [
        {
          "internalType": "uint256",
          "name": "_txIndex",
          "type": "uint256"
        }
      ],
      "name": "getTransaction",
      "outputs": [
        {
          "internalType": "address",
          "name": "to",
          "type": "address"
        },
        {
          "internalType": "uint256",
          "name": "value",
          "type": "uint256"
        },
        {
          "internalType": "bytes",
          "name": "data",
          "type": "bytes"
        },
        {
          "internalType": "bool",
          "name": "executed",
          "type": "bool"
        },
        {
          "internalType": "uint256",
          "name": "numConfirmations",
          "type": "uint256"
        }
      ],
      "stateMutability": "view",
      "type": "function",
      "constant": true
    }
  ],
  "bytecode": "0x60806040523480156200001157600080fd5b50604051620022ad380380620022ad833981810160405281019062000037919062000515565b60008251116200007e576040517f08c379a00000000000000000000000000000000000000000000000000000000081526004016200007590620005dc565b60405180910390fd5b60008111801562000090575081518111155b620000d2576040517f08c379a0000000000000000000000000000000000000000000000000000000008152600401620000c99062000674565b60405180910390fd5b60008251905060005b81811015620002db576000848281518110620000fc57620000fb62000696565b5b60200260200101519050600073ffffffffffffffffffffffffffffffffffffffff168173ffffffffffffffffffffffffffffffffffffffff16141562000179576040517f08c379a0000000000000000000000000000000000000000000000000000000008152600401620001709062000715565b60405180910390fd5b600260008273ffffffffffffffffffffffffffffffffffffffff1673ffffffffffffffffffffffffffffffffffffffff16815260200190815260200160002060009054906101000a900460ff161562000209576040517f08c379a0000000000000000000000000000000000000000000000000000000008152600401620002009062000787565b60405180910390fd5b6001600260008373ffffffffffffffffffffffffffffffffffffffff1673ffffffffffffffffffffffffffffffffffffffff16815260200190815260200160002060006101000a81548160ff0219169083151502179055506000819080600181540180825580915050600190039060005260206000200160009091909190916101000a81548173ffffffffffffffffffffffffffffffffffffffff021916908373ffffffffffffffffffffffffffffffffffffffff160217905550508080620002d290620007d8565b915050620000db565b508160048190555050505062000826565b6000604051905090565b600080fd5b600080fd5b600080fd5b6000601f19601f8301169050919050565b7f4e487b7100000000000000000000000000000000000000000000000000000000600052604160045260246000fd5b620003508262000305565b810181811067ffffffffffffffff8211171562000372576200037162000316565b5b80604052505050565b600062000387620002ec565b905062000395828262000345565b919050565b600067ffffffffffffffff821115620003b857620003b762000316565b5b602082029050602081019050919050565b600080fd5b600073ffffffffffffffffffffffffffffffffffffffff82169050919050565b6000620003fb82620003ce565b9050919050565b6200040d81620003ee565b81146200041957600080fd5b50565b6000815190506200042d8162000402565b92915050565b60006200044a62000444846200039a565b6200037b565b9050808382526020820190506020840283018581111562000470576200046f620003c9565b5b835b818110156200049d57806200048888826200041c565b84526020840193505060208101905062000472565b5050509392505050565b600082601f830112620004bf57620004be62000300565b5b8151620004d184826020860162000433565b91505092915050565b6000819050919050565b620004ef81620004da565b8114620004fb57600080fd5b50565b6000815190506200050f81620004e4565b92915050565b600080604083850312156200052f576200052e620002f6565b5b600083015167ffffffffffffffff81111562000550576200054f620002fb565b5b6200055e85828601620004a7565b92505060206200057185828601620004fe565b9150509250929050565b600082825260208201905092915050565b7f6f776e6572732072657175697265640000000000000000000000000000000000600082015250565b6000620005c4600f836200057b565b9150620005d1826200058c565b602082019050919050565b60006020820190508181036000830152620005f781620005b5565b9050919050565b7f696e76616c6964206e756d626572206f6620726571756972656420636f6e666960008201527f726d6174696f6e73000000000000000000000000000000000000000000000000602082015250565b60006200065c6028836200057b565b91506200066982620005fe565b604082019050919050565b600060208201905081810360008301526200068f816200064d565b9050919050565b7f4e487b7100000000000000000000000000000000000000000000000000000000600052603260045260246000fd5b7f696e76616c6964206f776e657200000000000000000000000000000000000000600082015250565b6000620006fd600d836200057b565b91506200070a82620006c5565b602082019050919050565b600060208201905081810360008301526200073081620006ee565b9050919050565b7f6f776e6572206e6f7420756e6971756500000000000000000000000000000000600082015250565b60006200076f6010836200057b565b91506200077c8262000737565b602082019050919050565b60006020820190508181036000830152620007a28162000760565b9050919050565b7f4e487b7100000000000000000000000000000000000000000000000000000000600052601160045260246000fd5b6000620007e582620004da565b91507fffffffffffffffffffffffffffffffffffffffffffffffffffffffffffffffff8214156200081b576200081a620007a9565b5b600182019050919050565b611a7780620008366000396000f3fe6080604052600436106100ab5760003560e01c80639ace38c2116100645780639ace38c214610253578063a0e67e2b14610294578063c01a8c84146102bf578063c6427474146102e8578063d0549b8514610311578063ee22610b1461033c57610102565b8063025e7c271461010757806320ea8d86146101445780632e7700f01461016d5780632f54bf6e1461019857806333ea3dc8146101d557806380f59a651461021657610102565b36610102573373ffffffffffffffffffffffffffffffffffffffff167f90890809c654f11d6e72a28fa60149770a0d11ec6c92319d6ceb2bb0a4ea1a1534476040516100f8929190611099565b60405180910390a2005b600080fd5b34801561011357600080fd5b5061012e60048036038101906101299190611102565b610365565b60405161013b9190611170565b60405180910390f35b34801561015057600080fd5b5061016b60048036038101906101669190611102565b6103a4565b005b34801561017957600080fd5b506101826105a9565b60405161018f919061118b565b60405180910390f35b3480156101a457600080fd5b506101bf60048036038101906101ba91906111d2565b6105b6565b6040516101cc919061121a565b60405180910390f35b3480156101e157600080fd5b506101fc60048036038101906101f79190611102565b6105d6565b60405161020d9594939291906112ce565b60405180910390f35b34801561022257600080fd5b5061023d60048036038101906102389190611328565b6106e9565b60405161024a919061121a565b60405180910390f35b34801561025f57600080fd5b5061027a60048036038101906102759190611102565b610718565b60405161028b959493929190611368565b60405180910390f35b3480156102a057600080fd5b506102a9610813565b6040516102b69190611480565b60405180910390f35b3480156102cb57600080fd5b506102e660048036038101906102e19190611102565b6108a1565b005b3480156102f457600080fd5b5061030f600480360381019061030a91906115d7565b610b46565b005b34801561031d57600080fd5b50610326610d1a565b604051610333919061118b565b60405180910390f35b34801561034857600080fd5b50610363600480360381019061035e9190611102565b610d20565b005b6000818154811061037557600080fd5b906000526020600020016000915054906101000a900473ffffffffffffffffffffffffffffffffffffffff1681565b600260003373ffffffffffffffffffffffffffffffffffffffff1673ffffffffffffffffffffffffffffffffffffffff16815260200190815260200160002060009054906101000a900460ff166103fa57600080fd5b806001805490508110610442576040517f08c379a0000000000000000000000000000000000000000000000000000000008152600401610439906116a3565b60405180910390fd5b8160018181548110610457576104566116c3565b5b906000526020600020906005020160040160009054906101000a900460ff16156104b6576040517f08c379a00000000000000000000000000000000000000000000000000000000081526004016104ad9061173e565b60405180910390fd5b6000600184815481106104cc576104cb6116c3565b5b906000526020600020906005020190508060020160008154809291906104f19061178d565b919050555060006003600086815260200190815260200160002060003373ffffffffffffffffffffffffffffffffffffffff1673ffffffffffffffffffffffffffffffffffffffff16815260200190815260200160002060006101000a81548160ff021916908315150217905550833373ffffffffffffffffffffffffffffffffffffffff167ff0dca620e2e81f7841d07bcc105e1704fb01475b278a9d4c236e1c62945edd5560405160405180910390a350505050565b6000600180549050905090565b60026020528060005260406000206000915054906101000a900460ff1681565b60008060606000806000600187815481106105f4576105f36116c3565b5b906000526020600020906005020190508060000160009054906101000a900473ffffffffffffffffffffffffffffffffffffffff168160010154826003018360040160009054906101000a900460ff168460020154828054610655906117e6565b80601f0160208091040260200160405190810160405280929190818152602001828054610681906117e6565b80156106ce5780601f106106a3576101008083540402835291602001916106ce565b820191906000526020600020905b8154815290600101906020018083116106b157829003601f168201915b50505050509250955095509550955095505091939590929450565b60036020528160005260406000206020528060005260406000206000915091509054906101000a900460ff1681565b6001818154811061072857600080fd5b90600052602060002090600502016000915090508060000160009054906101000a900473ffffffffffffffffffffffffffffffffffffffff169080600101549080600201549080600301805461077d906117e6565b80601f01602080910402602001604051908101604052809291908181526020018280546107a9906117e6565b80156107f65780601f106107cb576101008083540402835291602001916107f6565b820191906000526020600020905b8154815290600101906020018083116107d957829003601f168201915b5050505050908060040160009054906101000a900460ff16905085565b6060600080548060200260200160405190810160405280929190818152602001828054801561089757602002820191906000526020600020905b8160009054906101000a900473ffffffffffffffffffffffffffffffffffffffff1673ffffffffffffffffffffffffffffffffffffffff168152602001906001019080831161084d575b5050505050905090565b600260003373ffffffffffffffffffffffffffffffffffffffff1673ffffffffffffffffffffffffffffffffffffffff16815260200190815260200160002060009054906101000a900460ff166108f757600080fd5b806003600082815260200190815260200160002060003373ffffffffffffffffffffffffffffffffffffffff1673ffffffffffffffffffffffffffffffffffffffff16815260200190815260200160002060009054906101000a900460ff1615610996576040517f08c379a000000000000000000000000000000000000000000000000000000000815260040161098d90611864565b60405180910390fd5b8160018054905081106109de576040517f08c379a00000000000000000000000000000000000000000000000000000000081526004016109d5906116a3565b60405180910390fd5b82600181815481106109f3576109f26116c3565b5b906000526020600020906005020160040160009054906101000a900460ff1615610a52576040517f08c379a0000000000000000000000000000000000000000000000000000000008152600401610a499061173e565b60405180910390fd5b600060018581548110610a6857610a676116c3565b5b90600052602060002090600502019050806002016000815480929190610a8d90611884565b919050555060016003600087815260200190815260200160002060003373ffffffffffffffffffffffffffffffffffffffff1673ffffffffffffffffffffffffffffffffffffffff16815260200190815260200160002060006101000a81548160ff021916908315150217905550843373ffffffffffffffffffffffffffffffffffffffff167f5cbe105e36805f7820e291f799d5794ff948af2a5f664e580382defb6339004160405160405180910390a35050505050565b600260003373ffffffffffffffffffffffffffffffffffffffff1673ffffffffffffffffffffffffffffffffffffffff16815260200190815260200160002060009054906101000a900460ff16610b9c57600080fd5b6000600180549050905060016040518060a001604052808673ffffffffffffffffffffffffffffffffffffffff1681526020018581526020016000815260200184815260200160001515815250908060018154018082558091505060019003906000526020600020906005020160009091909190915060008201518160000160006101000a81548173ffffffffffffffffffffffffffffffffffffffff021916908373ffffffffffffffffffffffffffffffffffffffff16021790555060208201518160010155604082015181600201556060820151816003019080519060200190610c89929190610fdd565b5060808201518160040160006101000a81548160ff02191690831515021790555050508373ffffffffffffffffffffffffffffffffffffffff16813373ffffffffffffffffffffffffffffffffffffffff167fd5a05bf70715ad82a09a756320284a1b54c9ff74cd0f8cce6219e79b563fe59d8686604051610d0c9291906118cd565b60405180910390a450505050565b60045481565b600260003373ffffffffffffffffffffffffffffffffffffffff1673ffffffffffffffffffffffffffffffffffffffff16815260200190815260200160002060009054906101000a900460ff16610d7657600080fd5b806001805490508110610dbe576040517f08c379a0000000000000000000000000000000000000000000000000000000008152600401610db5906116a3565b60405180910390fd5b8160018181548110610dd357610dd26116c3565b5b906000526020600020906005020160040160009054906101000a900460ff1615610e32576040517f08c379a0000000000000000000000000000000000000000000000000000000008152600401610e299061173e565b60405180910390fd5b600060018481548110610e4857610e476116c3565b5b9060005260206000209060050201905060045481600201541015610ea1576040517f08c379a0000000000000000000000000000000000000000000000000000000008152600401610e9890611949565b60405180910390fd5b60018160040160006101000a81548160ff02191690831515021790555060008160000160009054906101000a900473ffffffffffffffffffffffffffffffffffffffff1673ffffffffffffffffffffffffffffffffffffffff168260010154604051610f0c9061199a565b60006040518083038185875af1925050503d8060008114610f49576040519150601f19603f3d011682016040523d82523d6000602084013e610f4e565b606091505b5050905080610f92576040517f08c379a0000000000000000000000000000000000000000000000000000000008152600401610f8990611a21565b60405180910390fd5b843373ffffffffffffffffffffffffffffffffffffffff167f5445f318f4f5fcfb66592e68e0cc5822aa15664039bd5f0ffde24c5a8142b1ac60405160405180910390a35050505050565b828054610fe9906117e6565b90600052602060002090601f01602090048101928261100b5760008555611052565b82601f1061102457805160ff1916838001178555611052565b82800160010185558215611052579182015b82811115611051578251825591602001919060010190611036565b5b50905061105f9190611063565b5090565b5b8082111561107c576000816000905550600101611064565b5090565b6000819050919050565b61109381611080565b82525050565b60006040820190506110ae600083018561108a565b6110bb602083018461108a565b9392505050565b6000604051905090565b600080fd5b600080fd5b6110df81611080565b81146110ea57600080fd5b50565b6000813590506110fc816110d6565b92915050565b600060208284031215611118576111176110cc565b5b6000611126848285016110ed565b91505092915050565b600073ffffffffffffffffffffffffffffffffffffffff82169050919050565b600061115a8261112f565b9050919050565b61116a8161114f565b82525050565b60006020820190506111856000830184611161565b92915050565b60006020820190506111a0600083018461108a565b92915050565b6111af8161114f565b81146111ba57600080fd5b50565b6000813590506111cc816111a6565b92915050565b6000602082840312156111e8576111e76110cc565b5b60006111f6848285016111bd565b91505092915050565b60008115159050919050565b611214816111ff565b82525050565b600060208201905061122f600083018461120b565b92915050565b600081519050919050565b600082825260208201905092915050565b60005b8381101561126f578082015181840152602081019050611254565b8381111561127e576000848401525b50505050565b6000601f19601f8301169050919050565b60006112a082611235565b6112aa8185611240565b93506112ba818560208601611251565b6112c381611284565b840191505092915050565b600060a0820190506112e36000830188611161565b6112f0602083018761108a565b81810360408301526113028186611295565b9050611311606083018561120b565b61131e608083018461108a565b9695505050505050565b6000806040838503121561133f5761133e6110cc565b5b600061134d858286016110ed565b925050602061135e858286016111bd565b9150509250929050565b600060a08201905061137d6000830188611161565b61138a602083018761108a565b611397604083018661108a565b81810360608301526113a98185611295565b90506113b8608083018461120b565b9695505050505050565b600081519050919050565b600082825260208201905092915050565b6000819050602082019050919050565b6113f78161114f565b82525050565b600061140983836113ee565b60208301905092915050565b6000602082019050919050565b600061142d826113c2565b61143781856113cd565b9350611442836113de565b8060005b8381101561147357815161145a88826113fd565b975061146583611415565b925050600181019050611446565b5085935050505092915050565b6000602082019050818103600083015261149a8184611422565b905092915050565b600080fd5b600080fd5b7f4e487b7100000000000000000000000000000000000000000000000000000000600052604160045260246000fd5b6114e482611284565b810181811067ffffffffffffffff82111715611503576115026114ac565b5b80604052505050565b60006115166110c2565b905061152282826114db565b919050565b600067ffffffffffffffff821115611542576115416114ac565b5b61154b82611284565b9050602081019050919050565b82818337600083830152505050565b600061157a61157584611527565b61150c565b905082815260208101848484011115611596576115956114a7565b5b6115a1848285611558565b509392505050565b600082601f8301126115be576115bd6114a2565b5b81356115ce848260208601611567565b91505092915050565b6000806000606084860312156115f0576115ef6110cc565b5b60006115fe868287016111bd565b935050602061160f868287016110ed565b925050604084013567ffffffffffffffff8111156116305761162f6110d1565b5b61163c868287016115a9565b9150509250925092565b600082825260208201905092915050565b7f5472616e73616374696f6e20646f65736e277420657869737473000000000000600082015250565b600061168d601a83611646565b915061169882611657565b602082019050919050565b600060208201905081810360008301526116bc81611680565b9050919050565b7f4e487b7100000000000000000000000000000000000000000000000000000000600052603260045260246000fd5b7f416c726561647920657865637574656400000000000000000000000000000000600082015250565b6000611728601083611646565b9150611733826116f2565b602082019050919050565b600060208201905081810360008301526117578161171b565b9050919050565b7f4e487b7100000000000000000000000000000000000000000000000000000000600052601160045260246000fd5b600061179882611080565b915060008214156117ac576117ab61175e565b5b600182039050919050565b7f4e487b7100000000000000000000000000000000000000000000000000000000600052602260045260246000fd5b600060028204905060018216806117fe57607f821691505b60208210811415611812576118116117b7565b5b50919050565b7f5472616e73616374696f6e20616c726561647920636f6e6669726d6564000000600082015250565b600061184e601d83611646565b915061185982611818565b602082019050919050565b6000602082019050818103600083015261187d81611841565b9050919050565b600061188f82611080565b91507fffffffffffffffffffffffffffffffffffffffffffffffffffffffffffffffff8214156118c2576118c161175e565b5b600182019050919050565b60006040820190506118e2600083018561108a565b81810360208301526118f48184611295565b90509392505050565b7f4e6f7420656e6f75676820636f6e6669726d6174696f6e730000000000000000600082015250565b6000611933601883611646565b915061193e826118fd565b602082019050919050565b6000602082019050818103600083015261196281611926565b9050919050565b600081905092915050565b50565b6000611984600083611969565b915061198f82611974565b600082019050919050565b60006119a582611977565b9150819050919050565b7f536f6d657468696e672077656e742077726f6e6720657865637574696e67207460008201527f72616e73616374696f6e00000000000000000000000000000000000000000000602082015250565b6000611a0b602a83611646565b9150611a16826119af565b604082019050919050565b60006020820190508181036000830152611a3a816119fe565b905091905056fea2646970667358221220899582a1499eea7cf948ed95bdcdefada4f09aa6a731b2da5cb4d945e11a3d7e64736f6c634300080b0033",
  "immutableReferences": {},
  "source": "// SPDX-License-Identifier: 6ssou \n// 02/05/2022  0xBbfaa2fb032296a1619a56f5440bd89770456697\npragma solidity ^0.8.0;\n\ncontract MultiSig {\n\n    event Deposit(address indexed sender, uint amount, uint balance);\n    event SubmitTransaction(\n        address indexed owner,\n        uint indexed txIndex,\n        address indexed to,\n        uint value,\n        bytes data\n    );\n    event ConfirmTransaction(address indexed owner, uint indexed txIndex);\n    event RevokeConfirmation(address indexed owner, uint indexed txIndex);\n    event ExecuteTransaction(address indexed owner, uint indexed txIndex);\n\n     struct Transaction {\n        address to;\n        uint value;\n        uint numConfirmations;\n        bytes data;\n        bool executed;\n    }\n\n    address[] public owners;\n    Transaction[] public transactions;\n    mapping(address => bool) public isOwner;\n    // txIndex => address => bool \n    mapping(uint => mapping(address => bool)) public isConfirmed;\n    uint public numConfirmationsRequired;\n\n    modifier onlyOwner() {\n        require(isOwner[msg.sender]);\n        _;\n    }\n    modifier notConfirmed(uint _txIndex) {\n        require(!isConfirmed[_txIndex][msg.sender], \"Transaction already confirmed\");\n        _;\n    }\n    modifier txExists(uint _txIndex) {\n        require(_txIndex < transactions.length, \"Transaction doesn't exists\");\n        _;\n    }\n    modifier notExecuted(uint _txIndex) {\n        require(!transactions[_txIndex].executed, \"Already executed\");\n        _;\n    }\n\n    constructor(address[] memory _owners, uint _numConfirmationsRequired) {\n       require(_owners.length > 0, \"owners required\");\n        require(\n            _numConfirmationsRequired > 0 &&\n                _numConfirmationsRequired <= _owners.length,\n            \"invalid number of required confirmations\"\n        );\n        uint ownerLength = _owners.length;\n        for (uint i = 0; i < ownerLength; i++) {\n            address owner = _owners[i];\n\n            require(owner != address(0), \"invalid owner\");\n            require(!isOwner[owner], \"owner not unique\");\n\n            isOwner[owner] = true;\n            owners.push(owner);\n        }\n\n        numConfirmationsRequired = _numConfirmationsRequired;\n    }\n\n    receive() external payable {\n        emit Deposit(msg.sender, msg.value, address(this).balance);\n    }\n\n    function submitTransaction(\n        address _to,\n        uint _value,\n        bytes memory _data\n    ) public onlyOwner {\n        uint index = transactions.length;\n        transactions.push(Transaction(_to, _value, 0, _data, false));\n        emit SubmitTransaction(msg.sender, index, _to, _value, _data);\n    }\n\n    function confirmTransaction(uint _txIndex) \n        public \n        onlyOwner\n        notConfirmed(_txIndex)  \n        txExists(_txIndex)\n        notExecuted(_txIndex)\n    {\n        Transaction storage transaction = transactions[_txIndex];\n        transaction.numConfirmations++;\n        isConfirmed[_txIndex][msg.sender] = true;\n        emit ConfirmTransaction(msg.sender, _txIndex);\n    }\n\n    function executeTransaction(uint _txIndex) \n        public\n        onlyOwner\n        txExists(_txIndex)\n        notExecuted(_txIndex)\n    {\n        Transaction storage transaction = transactions[_txIndex];\n        require(transaction.numConfirmations >= numConfirmationsRequired, \"Not enough confirmations\");\n\n        transaction.executed = true;\n        (bool sent, ) = transaction.to.call{value: transaction.value}('');\n        require(sent, \"Something went wrong executing transaction\");\n        emit ExecuteTransaction(msg.sender,_txIndex);\n    }\n\n    function revokeConfirmation(uint _txIndex)\n        public\n        onlyOwner\n        txExists(_txIndex)    \n        notExecuted(_txIndex)\n    {\n        Transaction storage transaction = transactions[_txIndex];\n        transaction.numConfirmations--;\n        isConfirmed[_txIndex][msg.sender] = false;\n        emit RevokeConfirmation(msg.sender, _txIndex);\n    }\n\n    function getOwners() public view returns (address[] memory) {\n        return owners;\n    }\n\n    function getTransactionCount() public view returns (uint) {\n        return transactions.length;\n    }\n\n    function getTransaction(uint _txIndex)\n        public\n        view\n        returns (\n            address to,\n            uint value,\n            bytes memory data,\n            bool executed,\n            uint numConfirmations\n        )\n    {\n        Transaction storage transaction = transactions[_txIndex];\n        return (\n            transaction.to,\n            transaction.value,\n            transaction.data,\n            transaction.executed,\n            transaction.numConfirmations\n        );\n    }\n}",
  "sourcePath": "/Users/cyril/Dev/solidity/Solidity_MultiSig_wallet/ethereum/contracts/MultiSig.sol",
  "compiler": {
    "name": "solc",
    "version": "0.8.11+commit.d7f03943.Emscripten.clang"
  },
  "schemaVersion": "3.4.7",
  "updatedAt": "2022-06-12T12:09:27.948Z",
  "networkType": "ethereum",
  "devdoc": {
    "kind": "dev",
    "methods": {},
    "version": 1
  },
  "userdoc": {
    "kind": "user",
    "methods": {},
    "version": 1
  }
}